{
  "_format": "hh-sol-artifact-1",
  "contractName": "Voting",
  "sourceName": "contracts/Voting.sol",
  "abi": [
    {
      "inputs": [
        {
          "internalType": "string",
          "name": "_electionTitle",
          "type": "string"
        }
      ],
      "stateMutability": "nonpayable",
      "type": "constructor"
    },
    {
      "anonymous": false,
      "inputs": [
        {
          "indexed": true,
          "internalType": "uint256",
          "name": "candidateId",
          "type": "uint256"
        },
        {
          "indexed": false,
          "internalType": "string",
          "name": "name",
          "type": "string"
        }
      ],
      "name": "CandidateAdded",
      "type": "event"
    },
    {
      "anonymous": false,
      "inputs": [
        {
          "indexed": false,
          "internalType": "uint256",
          "name": "timestamp",
          "type": "uint256"
        },
        {
          "indexed": false,
          "internalType": "uint256",
          "name": "totalVotesCast",
          "type": "uint256"
        }
      ],
      "name": "ElectionEnded",
      "type": "event"
    },
    {
      "anonymous": false,
      "inputs": [
        {
          "indexed": false,
          "internalType": "uint256",
          "name": "timestamp",
          "type": "uint256"
        }
      ],
      "name": "ElectionStarted",
      "type": "event"
    },
    {
      "anonymous": false,
      "inputs": [
        {
          "indexed": true,
          "internalType": "address",
          "name": "voter",
          "type": "address"
        },
        {
          "indexed": true,
          "internalType": "uint256",
          "name": "candidateId",
          "type": "uint256"
        },
        {
          "indexed": false,
          "internalType": "uint256",
          "name": "timestamp",
          "type": "uint256"
        }
      ],
      "name": "Voted",
      "type": "event"
    },
    {
      "anonymous": false,
      "inputs": [
        {
          "indexed": true,
          "internalType": "address",
          "name": "voter",
          "type": "address"
        },
        {
          "indexed": true,
          "internalType": "address",
          "name": "grantedBy",
          "type": "address"
        }
      ],
      "name": "VoterWhitelisted",
      "type": "event"
    },
    {
      "inputs": [
        {
          "internalType": "string",
          "name": "_name",
          "type": "string"
        },
        {
          "internalType": "string",
          "name": "_description",
          "type": "string"
        }
      ],
      "name": "addCandidate",
      "outputs": [],
      "stateMutability": "nonpayable",
      "type": "function"
    },
    {
      "inputs": [],
      "name": "electionActive",
      "outputs": [
        {
          "internalType": "bool",
          "name": "",
          "type": "bool"
        }
      ],
      "stateMutability": "view",
      "type": "function"
    },
    {
      "inputs": [],
      "name": "electionEnded",
      "outputs": [
        {
          "internalType": "bool",
          "name": "",
          "type": "bool"
        }
      ],
      "stateMutability": "view",
      "type": "function"
    },
    {
      "inputs": [],
      "name": "electionTitle",
      "outputs": [
        {
          "internalType": "string",
          "name": "",
          "type": "string"
        }
      ],
      "stateMutability": "view",
      "type": "function"
    },
    {
      "inputs": [],
      "name": "endElection",
      "outputs": [],
      "stateMutability": "nonpayable",
      "type": "function"
    },
    {
      "inputs": [],
      "name": "endTime",
      "outputs": [
        {
          "internalType": "uint256",
          "name": "",
          "type": "uint256"
        }
      ],
      "stateMutability": "view",
      "type": "function"
    },
    {
      "inputs": [],
      "name": "getAllCandidates",
      "outputs": [
        {
          "internalType": "string[]",
          "name": "names",
          "type": "string[]"
        },
        {
          "internalType": "string[]",
          "name": "descriptions",
          "type": "string[]"
        },
        {
          "internalType": "uint256[]",
          "name": "voteCounts",
          "type": "uint256[]"
        }
      ],
      "stateMutability": "view",
      "type": "function"
    },
    {
      "inputs": [
        {
          "internalType": "uint256",
          "name": "_candidateId",
          "type": "uint256"
        }
      ],
      "name": "getCandidate",
      "outputs": [
        {
          "internalType": "string",
          "name": "name",
          "type": "string"
        },
        {
          "internalType": "string",
          "name": "description",
          "type": "string"
        },
        {
          "internalType": "uint256",
          "name": "voteCount",
          "type": "uint256"
        }
      ],
      "stateMutability": "view",
      "type": "function"
    },
    {
      "inputs": [],
      "name": "getCandidatesCount",
      "outputs": [
        {
          "internalType": "uint256",
          "name": "",
          "type": "uint256"
        }
      ],
      "stateMutability": "view",
      "type": "function"
    },
    {
      "inputs": [],
      "name": "getElectionStatus",
      "outputs": [
        {
          "internalType": "bool",
          "name": "active",
          "type": "bool"
        },
        {
          "internalType": "bool",
          "name": "ended",
          "type": "bool"
        },
        {
          "internalType": "uint256",
          "name": "totalVotesCast",
          "type": "uint256"
        },
        {
          "internalType": "uint256",
          "name": "electionStartTime",
          "type": "uint256"
        },
        {
          "internalType": "uint256",
          "name": "electionEndTime",
          "type": "uint256"
        }
      ],
      "stateMutability": "view",
      "type": "function"
    },
    {
      "inputs": [
        {
          "internalType": "address",
          "name": "_voter",
          "type": "address"
        }
      ],
      "name": "getVoterChoice",
      "outputs": [
        {
          "internalType": "uint256",
          "name": "",
          "type": "uint256"
        }
      ],
      "stateMutability": "view",
      "type": "function"
    },
    {
      "inputs": [
        {
          "internalType": "uint256",
          "name": "_candidateId",
          "type": "uint256"
        }
      ],
      "name": "getVotes",
      "outputs": [
        {
          "internalType": "uint256",
          "name": "",
          "type": "uint256"
        }
      ],
      "stateMutability": "view",
      "type": "function"
    },
    {
      "inputs": [],
      "name": "getWinner",
      "outputs": [
        {
          "internalType": "uint256",
          "name": "winnerId",
          "type": "uint256"
        },
        {
          "internalType": "string",
          "name": "winnerName",
          "type": "string"
        },
        {
          "internalType": "uint256",
          "name": "winnerVotes",
          "type": "uint256"
        },
        {
          "internalType": "bool",
          "name": "isTie",
          "type": "bool"
        }
      ],
      "stateMutability": "view",
      "type": "function"
    },
    {
      "inputs": [
        {
          "internalType": "address",
          "name": "",
          "type": "address"
        }
      ],
      "name": "hasVoted",
      "outputs": [
        {
          "internalType": "bool",
          "name": "",
          "type": "bool"
        }
      ],
      "stateMutability": "view",
      "type": "function"
    },
    {
      "inputs": [
        {
          "internalType": "address",
          "name": "_voter",
          "type": "address"
        }
      ],
      "name": "hasVoterVoted",
      "outputs": [
        {
          "internalType": "bool",
          "name": "",
          "type": "bool"
        }
      ],
      "stateMutability": "view",
      "type": "function"
    },
    {
      "inputs": [
        {
          "internalType": "address",
          "name": "_voter",
          "type": "address"
        }
      ],
      "name": "isWhitelisted",
      "outputs": [
        {
          "internalType": "bool",
          "name": "",
          "type": "bool"
        }
      ],
      "stateMutability": "view",
      "type": "function"
    },
    {
      "inputs": [],
      "name": "owner",
      "outputs": [
        {
          "internalType": "address",
          "name": "",
          "type": "address"
        }
      ],
      "stateMutability": "view",
      "type": "function"
    },
    {
      "inputs": [],
      "name": "startElection",
      "outputs": [],
      "stateMutability": "nonpayable",
      "type": "function"
    },
    {
      "inputs": [],
      "name": "startTime",
      "outputs": [
        {
          "internalType": "uint256",
          "name": "",
          "type": "uint256"
        }
      ],
      "stateMutability": "view",
      "type": "function"
    },
    {
      "inputs": [],
      "name": "totalVotes",
      "outputs": [
        {
          "internalType": "uint256",
          "name": "",
          "type": "uint256"
        }
      ],
      "stateMutability": "view",
      "type": "function"
    },
    {
      "inputs": [
        {
          "internalType": "uint256",
          "name": "_candidateId",
          "type": "uint256"
        }
      ],
      "name": "vote",
      "outputs": [],
      "stateMutability": "nonpayable",
      "type": "function"
    },
    {
      "inputs": [
        {
          "internalType": "address",
          "name": "",
          "type": "address"
        }
      ],
      "name": "voterChoice",
      "outputs": [
        {
          "internalType": "uint256",
          "name": "",
          "type": "uint256"
        }
      ],
      "stateMutability": "view",
      "type": "function"
    },
    {
      "inputs": [
        {
          "internalType": "address",
          "name": "",
          "type": "address"
        }
      ],
      "name": "whitelist",
      "outputs": [
        {
          "internalType": "bool",
          "name": "",
          "type": "bool"
        }
      ],
      "stateMutability": "view",
      "type": "function"
    },
    {
      "inputs": [
        {
          "internalType": "address[]",
          "name": "_voters",
          "type": "address[]"
        }
      ],
      "name": "whitelistMultipleVoters",
      "outputs": [],
      "stateMutability": "nonpayable",
      "type": "function"
    },
    {
      "inputs": [
        {
          "internalType": "address",
          "name": "_voter",
          "type": "address"
        }
      ],
      "name": "whitelistVoter",
      "outputs": [],
      "stateMutability": "nonpayable",
      "type": "function"
    }
  ],
  "bytecode": "0x60806040523480156200001157600080fd5b5060405162001d2a38038062001d2a833981016040819052620000349162000082565b600080546001600160a01b031916331790556001620000548282620001e6565b50506006805461ffff191690556000600755620002b2565b634e487b7160e01b600052604160045260246000fd5b600060208083850312156200009657600080fd5b82516001600160401b0380821115620000ae57600080fd5b818501915085601f830112620000c357600080fd5b815181811115620000d857620000d86200006c565b604051601f8201601f19908116603f011681019083821181831017156200010357620001036200006c565b8160405282815288868487010111156200011c57600080fd5b600093505b8284101562000140578484018601518185018701529285019262000121565b600086848301015280965050505050505092915050565b600181811c908216806200016c57607f821691505b6020821081036200018d57634e487b7160e01b600052602260045260246000fd5b50919050565b601f821115620001e157600081815260208120601f850160051c81016020861015620001bc5750805b601f850160051c820191505b81811015620001dd57828155600101620001c8565b5050505b505050565b81516001600160401b038111156200020257620002026200006c565b6200021a8162000213845462000157565b8462000193565b602080601f831160018114620002525760008415620002395750858301515b600019600386901b1c1916600185901b178555620001dd565b600085815260208120601f198616915b82811015620002835788860151825594840194600190910190840162000262565b5085821015620002a25787850151600019600388901b60f8161c191681555b5050505050600190811b01905550565b611a6880620002c26000396000f3fe608060405234801561001057600080fd5b50600436106101735760003560e01c80637ed628bb116100de578063ad84c2da11610097578063c546c3b211610071578063c546c3b214610393578063c94ca9e3146103a8578063fd11f97a146103ba578063ff981099146103e657600080fd5b8063ad84c2da14610358578063bb9aa28f14610378578063bddf1ce91461038057600080fd5b80637ed628bb146102bf5780638847103b146102cc5780638da5cb5b146102df5780638e7ea5b21461030a5780639b19251a14610322578063a73cdcb01461034557600080fd5b80633197cbb6116101305780633197cbb61461024f57806335b8e820146102585780633af32abf1461027a57806359f78468146102a657806362d73eb8146102ae57806378e97925146102b657600080fd5b80630121b93f1461017857806309eef43e1461018d5780630d15fd77146101c5578063122902a6146101dc57806326541b56146102255780632e6997fe14610238575b600080fd5b61018b610186366004611431565b6103f9565b005b6101b061019b36600461144a565b60046020526000908152604090205460ff1681565b60405190151581526020015b60405180910390f35b6101ce60075481565b6040519081526020016101bc565b6101fb60065460075460085460095460ff808516946101009004169394565b6040805195151586529315156020860152928401919091526060830152608082015260a0016101bc565b61018b61023336600461151d565b61060f565b6102406107d1565b6040516101bc9392919061161c565b6101ce60095481565b61026b610266366004611431565b610ab8565b6040516101bc93929190611685565b6101b061028836600461144a565b6001600160a01b031660009081526003602052604090205460ff1690565b61018b610c39565b61018b610cf2565b6101ce60085481565b6006546101b09060ff1681565b6101ce6102da36600461144a565b610dfb565b6000546102f2906001600160a01b031681565b6040516001600160a01b0390911681526020016101bc565b610312610e77565b6040516101bc94939291906116bb565b6101b061033036600461144a565b60036020526000908152604090205460ff1681565b61018b6103533660046116ec565b61109c565b6101ce61036636600461144a565b60056020526000908152604090205481565b6002546101ce565b61018b61038e36600461144a565b611225565b61039b611353565b6040516101bc9190611761565b6006546101b090610100900460ff1681565b6101b06103c836600461144a565b6001600160a01b031660009081526004602052604090205460ff1690565b6101ce6103f4366004611431565b6113e1565b60065460ff1680156104135750600654610100900460ff16155b6104385760405162461bcd60e51b815260040161042f90611774565b60405180910390fd5b3360009081526003602052604090205460ff166104bd5760405162461bcd60e51b815260206004820152603a60248201527f42616e206b686f6e6720636f20717579656e20626175206375202d206c69656e60448201527f2068652041646d696e2064652064756f63206361702070686570000000000000606482015260840161042f565b3360009081526004602052604090205460ff16156105365760405162461bcd60e51b815260206004820152603060248201527f42616e2064612062617520726f69202d206d6f6920637520747269206368692060448201526f323ab7b1903130ba9036b7ba103630b760811b606482015260840161042f565b60025481106105575760405162461bcd60e51b815260040161042f906117b7565b336000908152600460209081526040808320805460ff1916600190811790915560059092529091208290556002805483908110610596576105966117e7565b906000526020600020906003020160020160008282546105b69190611813565b925050819055506001600760008282546105d09190611813565b9091555050604051428152819033907fea66f58e474bc09f580000e81f31b334d171db387d0c6098ba47bd897741679b9060200160405180910390a350565b6000546001600160a01b031633146106395760405162461bcd60e51b815260040161042f9061182c565b60065460ff161580156106545750600654610100900460ff16155b6106705760405162461bcd60e51b815260040161042f9061187a565b60008251116106c15760405162461bcd60e51b815260206004820181905260248201527f54656e20756e67207669656e206b686f6e672064756f632064652074726f6e67604482015260640161042f565b6002546032116107085760405162461bcd60e51b81526020600482015260126024820152712a37b4903230901a98103ab733903b34b2b760711b604482015260640161042f565b60408051606081018252838152602081018390526000918101829052600280546001810182559252805190916003027f405787fa12a823e0f2b7631cc41b3ba8828b3321ca811111fa75cd3aa3bb5ace019081906107669082611946565b506020820151600182019061077b9082611946565b50604091909101516002918201555461079690600190611a06565b7fe83b2a43e7e82d975c8a0a6d2f045153c869e111136a34d1889ab7b598e396a3836040516107c59190611761565b60405180910390a25050565b600254606090819081908067ffffffffffffffff8111156107f4576107f461147a565b60405190808252806020026020018201604052801561082757816020015b60608152602001906001900390816108125790505b5093508067ffffffffffffffff8111156108435761084361147a565b60405190808252806020026020018201604052801561087657816020015b60608152602001906001900390816108615790505b5092508067ffffffffffffffff8111156108925761089261147a565b6040519080825280602002602001820160405280156108bb578160200160208202803683370190505b50915060005b81811015610ab157600281815481106108dc576108dc6117e7565b906000526020600020906003020160000180546108f8906118be565b80601f0160208091040260200160405190810160405280929190818152602001828054610924906118be565b80156109715780601f1061094657610100808354040283529160200191610971565b820191906000526020600020905b81548152906001019060200180831161095457829003601f168201915b5050505050858281518110610988576109886117e7565b6020026020010181905250600281815481106109a6576109a66117e7565b906000526020600020906003020160010180546109c2906118be565b80601f01602080910402602001604051908101604052809291908181526020018280546109ee906118be565b8015610a3b5780601f10610a1057610100808354040283529160200191610a3b565b820191906000526020600020905b815481529060010190602001808311610a1e57829003601f168201915b5050505050848281518110610a5257610a526117e7565b602002602001018190525060028181548110610a7057610a706117e7565b906000526020600020906003020160020154838281518110610a9457610a946117e7565b602090810291909101015280610aa981611a19565b9150506108c1565b5050909192565b60608060006002805490508410610ae15760405162461bcd60e51b815260040161042f906117b7565b600060028581548110610af657610af66117e7565b9060005260206000209060030201905080600001816001018260020154828054610b1f906118be565b80601f0160208091040260200160405190810160405280929190818152602001828054610b4b906118be565b8015610b985780601f10610b6d57610100808354040283529160200191610b98565b820191906000526020600020905b815481529060010190602001808311610b7b57829003601f168201915b50505050509250818054610bab906118be565b80601f0160208091040260200160405190810160405280929190818152602001828054610bd7906118be565b8015610c245780601f10610bf957610100808354040283529160200191610c24565b820191906000526020600020905b815481529060010190602001808311610c0757829003601f168201915b50505050509150935093509350509193909250565b6000546001600160a01b03163314610c635760405162461bcd60e51b815260040161042f9061182c565b60065460ff168015610c7d5750600654610100900460ff16155b610c995760405162461bcd60e51b815260040161042f90611774565b6006805461ffff19166101001790554260098190556007546040517f32e2c12037f9600b91a766ce53eab6909f3bdb865851cd9a8c7fafbdf249a9ce92610ce892908252602082015260400190565b60405180910390a1565b6000546001600160a01b03163314610d1c5760405162461bcd60e51b815260040161042f9061182c565b60065460ff16158015610d375750600654610100900460ff16155b610d535760405162461bcd60e51b815260040161042f9061187a565b600280541015610db65760405162461bcd60e51b815260206004820152602860248201527f43616e206974206e686174203220756e67207669656e20646520626174206461604482015267752062617520637560c01b606482015260840161042f565b6006805460ff191660011790554260088190556040517f159eee87222a0489c529f2153c26ad65d718f2cc33ebaa8d399d1dd5b39facaa91610ce89190815260200190565b6001600160a01b03811660009081526004602052604081205460ff16610e5b5760405162461bcd60e51b815260206004820152601560248201527443752074726920636875612062617520706869657560581b604482015260640161042f565b506001600160a01b031660009081526005602052604090205490565b60006060600080600660019054906101000a900460ff16610ed15760405162461bcd60e51b81526020600482015260146024820152734261752063752063687561206b6574207468756360601b604482015260640161042f565b600254610f185760405162461bcd60e51b81526020600482015260156024820152744b686f6e6720636f20756e67207669656e206e616f60581b604482015260640161042f565b6000806000805b600254811015610fd7578360028281548110610f3d57610f3d6117e7565b9060005260206000209060030201600201541115610f885760028181548110610f6857610f686117e7565b906000526020600020906003020160020154935080925060009150610fc5565b8360028281548110610f9c57610f9c6117e7565b906000526020600020906003020160020154148015610fbb5750600084115b15610fc557600191505b80610fcf81611a19565b915050610f1f565b508160028381548110610fec57610fec6117e7565b9060005260206000209060030201600001848382805461100b906118be565b80601f0160208091040260200160405190810160405280929190818152602001828054611037906118be565b80156110845780601f1061105957610100808354040283529160200191611084565b820191906000526020600020905b81548152906001019060200180831161106757829003601f168201915b50505050509250965096509650965050505090919293565b6000546001600160a01b031633146110c65760405162461bcd60e51b815260040161042f9061182c565b60005b818110156112205760008383838181106110e5576110e56117e7565b90506020020160208101906110fa919061144a565b6001600160a01b031614158015611156575060036000848484818110611122576111226117e7565b9050602002016020810190611137919061144a565b6001600160a01b0316815260208101919091526040016000205460ff16155b1561120e57600160036000858585818110611173576111736117e7565b9050602002016020810190611188919061144a565b6001600160a01b031681526020810191909152604001600020805460ff1916911515919091179055338383838181106111c3576111c36117e7565b90506020020160208101906111d8919061144a565b6001600160a01b03167f17630a24b3f78a7008f56d0e75b0a794148e71cddf6a52a474ed0e361b362e3060405160405180910390a35b8061121881611a19565b9150506110c9565b505050565b6000546001600160a01b0316331461124f5760405162461bcd60e51b815260040161042f9061182c565b6001600160a01b03811661129c5760405162461bcd60e51b815260206004820152601460248201527344696120636869206b686f6e6720686f70206c6560601b604482015260640161042f565b6001600160a01b03811660009081526003602052604090205460ff16156113055760405162461bcd60e51b815260206004820152601860248201527f4375207472692064612064756f632063617020717579656e0000000000000000604482015260640161042f565b6001600160a01b038116600081815260036020526040808220805460ff19166001179055513392917f17630a24b3f78a7008f56d0e75b0a794148e71cddf6a52a474ed0e361b362e3091a350565b60018054611360906118be565b80601f016020809104026020016040519081016040528092919081815260200182805461138c906118be565b80156113d95780601f106113ae576101008083540402835291602001916113d9565b820191906000526020600020905b8154815290600101906020018083116113bc57829003601f168201915b505050505081565b60025460009082106114055760405162461bcd60e51b815260040161042f906117b7565b60028281548110611418576114186117e7565b9060005260206000209060030201600201549050919050565b60006020828403121561144357600080fd5b5035919050565b60006020828403121561145c57600080fd5b81356001600160a01b038116811461147357600080fd5b9392505050565b634e487b7160e01b600052604160045260246000fd5b600082601f8301126114a157600080fd5b813567ffffffffffffffff808211156114bc576114bc61147a565b604051601f8301601f19908116603f011681019082821181831017156114e4576114e461147a565b816040528381528660208588010111156114fd57600080fd5b836020870160208301376000602085830101528094505050505092915050565b6000806040838503121561153057600080fd5b823567ffffffffffffffff8082111561154857600080fd5b61155486838701611490565b9350602085013591508082111561156a57600080fd5b5061157785828601611490565b9150509250929050565b6000815180845260005b818110156115a75760208185018101518683018201520161158b565b506000602082860101526020601f19601f83011685010191505092915050565b600081518084526020808501808196508360051b8101915082860160005b8581101561160f5782840389526115fd848351611581565b988501989350908401906001016115e5565b5091979650505050505050565b60608152600061162f60608301866115c7565b60208382038185015261164282876115c7565b8481036040860152855180825282870193509082019060005b818110156116775784518352938301939183019160010161165b565b509098975050505050505050565b6060815260006116986060830186611581565b82810360208401526116aa8186611581565b915050826040830152949350505050565b8481526080602082015260006116d46080830186611581565b60408301949094525090151560609091015292915050565b600080602083850312156116ff57600080fd5b823567ffffffffffffffff8082111561171757600080fd5b818501915085601f83011261172b57600080fd5b81358181111561173a57600080fd5b8660208260051b850101111561174f57600080fd5b60209290920196919550909350505050565b6020815260006114736020830184611581565b60208082526023908201527f43756f6320626175206375206869656e206b686f6e672064616e67206469656e60408201526220726160e81b606082015260800190565b602080825260169082015275556e67207669656e206b686f6e6720746f6e2074616960501b604082015260600190565b634e487b7160e01b600052603260045260246000fd5b634e487b7160e01b600052601160045260246000fd5b80820180821115611826576118266117fd565b92915050565b6020808252602e908201527f4368692041646d696e206d6f6920636f20717579656e2074687563206869656e60408201526d2068616e6820646f6e67206e617960901b606082015260800190565b60208082526024908201527f43756f6320626175206375206461206261742064617520686f6163206b6574206040820152637468756360e01b606082015260800190565b600181811c908216806118d257607f821691505b6020821081036118f257634e487b7160e01b600052602260045260246000fd5b50919050565b601f82111561122057600081815260208120601f850160051c8101602086101561191f5750805b601f850160051c820191505b8181101561193e5782815560010161192b565b505050505050565b815167ffffffffffffffff8111156119605761196061147a565b6119748161196e84546118be565b846118f8565b602080601f8311600181146119a957600084156119915750858301515b600019600386901b1c1916600185901b17855561193e565b600085815260208120601f198616915b828110156119d8578886015182559484019460019091019084016119b9565b50858210156119f65787850151600019600388901b60f8161c191681555b5050505050600190811b01905550565b81810381811115611826576118266117fd565b600060018201611a2b57611a2b6117fd565b506001019056fea2646970667358221220c3cbf6c225d0d52b5f0f1a3fed388471f53130fdc21eaae34a62cfc094d0475164736f6c63430008130033",
  "linkReferences": {},
  "deployedLinkReferences": {}
}